:0400000098EF02F083
:100300000000000E116E0FBE8AEF01F088EF01F0C1
:1003100090EF01F00E6C0F1ED8B00F2A010E116E77
:100320000DBE97EF01F095EF01F09DEF01F00C6C21
:100330000D1ED8B00D2A010E111A000E136E000EFC
:10034000126E0E500F10D8B4A8EF01F0AAEF01F012
:10035000D2EF01F0010E106EB2EF01F0D8900E3620
:100360000F36102A0FAEB7EF01F0B9EF01F0AEEF84
:1003700001F0D890123613360E500C5C0F500D5809
:10038000D8A0C5EF01F0C7EF01F0CCEF01F00E509F
:100390000C5E0F500D5A1280D8900F320E32102E74
:1003A000B9EF01F01150D8B4D8EF01F0DAEF01F055
:1003B000DEEF01F0126C131ED8B0132A12C00CF03D
:1003C00013C00DF01200000E936E000E956E172AEA
:1003D000180E1718D8A4EFEF01F0F1EF01F0FFEFBE
:1003E00001F0000E176E162A640E1618D8A4FBEF43
:1003F00001F0FDEF01F0FFEF01F0000E166E16C0E8
:1004000015F08382839415C00CF00D6A000E0F6EF8
:100410000A0E0E6E40EC02F00C50010FD96EDA6A33
:10042000DF50816E0D0E146EFC0EE82EFED7142EDA
:10043000FCD715C00CF00D6A000E0F6E0A0E0E6E82
:1004400081EC01F00C50156E8392838415C00CF082
:100450000D6A000E0F6E0A0E0E6E40EC02F00C508C
:10046000010FD96EDA6ADF50816E0D0E146EFC0E2C
:10047000E82EFED7142EFCD7E7EF01F000EF00F0D6
:10048000000E116E0DBE49EF02F047EF02F04FEF84
:1004900002F00C6C0D1ED8B00D2A010E116E0FBEAD
:1004A00056EF02F054EF02F05AEF02F00E6C0F1EFE
:1004B000D8B00F2A0E500F10D8B461EF02F063EFDE
:1004C00002F087EF02F0010E106E6BEF02F0D89091
:1004D0000E360F36102A0FAE70EF02F072EF02F0F8
:1004E00067EF02F00E500C5C0F500D58D8A07BEF58
:1004F00002F07DEF02F081EF02F00E500C5E0F5023
:100500000D5AD8900F320E32102E72EF02F01150A9
:10051000D8B48DEF02F08FEF02F093EF02F00C6C85
:100520000D1ED8B00D2A0CC00CF00DC00DF012003D
:100530005A0EF66E050EF76E000EF86E00EE01F024
:1005400010EE0BF00900F5CFEEFFE550E150FAE1B7
:10055000176A166A0001E3EF01F03F065B4F666D14
:050560007D077F6FFF25
:020000040030CA
:0E000000FFC90F3F3C9D85FF0FC00FE00F4072
:00000001FF
