:04000000F2EF02F029
:1003000000000B6E0950D8A488EF01F08AEF01F0CD
:10031000C2EF01F00BC00AF0010E0A1681500A1854
:10032000FE0B0A18816E0BC00AF0D8900A32010E3B
:100330000A160A4681500A18FD0B0A18816E0BC076
:100340000AF0D8900A32D8900A32010E0A160A46EC
:100350000A4681500A18FB0B0A18816E0BC00AF07E
:10036000D8900A32D8900A32D8900A32010E0A1672
:100370000A460A460A4681500A18F70B0A18816E87
:10038000FAEF01F00BC00AF0010E0A160A3A81508A
:100390000A18EF0B0A18816E0BC00AF0D8900A32C7
:1003A000010E0A160A3A0A4681500A18DF0B0A188B
:1003B000816E0BC00AF0D8900A32D8900A32010E32
:1003C0000A160A3A0A460A4681500A18BF0B0A184A
:1003D000816E0BC00AF0D8900A32D8900A32D890B9
:1003E0000A32010E0A160A320A3281500A187F0BAD
:1003F0000A18816E1200000E066E04BE04EF02F0B1
:1004000002EF02F00AEF02F0036C041ED8B0042AD7
:10041000010E066E02BE11EF02F00FEF02F017EFB1
:1004200002F0016C021ED8B0022A010E061A000E5C
:10043000086E000E076E03500410D8B422EF02F0CD
:1004400024EF02F04CEF02F0010E056E2CEF02F0EB
:10045000D89003360436052A04AE31EF02F033EFAC
:1004600002F028EF02F0D890073608360350015CFE
:1004700004500258D8A03FEF02F041EF02F046EFDF
:1004800002F00350015E0450025A0780D8900432F3
:100490000332052E33EF02F00650D8B452EF02F0CB
:1004A00054EF02F058EF02F0076C081ED8B0082A8B
:1004B00007C001F008C002F01200000E066E02BE76
:1004C00066EF02F064EF02F06CEF02F0016C021EC6
:1004D000D8B0022A010E066E04BE73EF02F071EF6F
:1004E00002F077EF02F0036C041ED8B0042A035028
:1004F0000410D8B47EEF02F080EF02F0A4EF02F017
:10050000010E056E88EF02F0D89003360436052AF6
:1005100004AE8DEF02F08FEF02F084EF02F0035093
:10052000015C04500258D8A098EF02F09AEF02F054
:100530009EEF02F00350015E0450025AD89004323C
:100540000332052E8FEF02F00650D8B4AAEF02F066
:10055000ACEF02F0B0EF02F0016C021ED8B0022A3C
:1005600001C001F002C002F01200000E0E6E000E7B
:10057000936E0E2A640E0E18D8A4C1EF02F0C3EFDA
:1005800002F0C5EF02F0000E0E6E000E096E0EC0F6
:1005900001F0026A000E046E0A0E036E5DEC02F0BA
:1005A000015081EC01F0010E096E0EC001F0026AEB
:1005B000000E046E0A0E036EFBEC01F0015081EC9C
:1005C00001F0020E0D6E040E0C6EBA0EE82EFED770
:1005D0000C2EFCD70D2EFAD700F000F0B9EF02F088
:0A05E00000EF00F00001B5EF02F09B
:020000040030CA
:0E000000FFC90F3F3C9D85FF0FC00FE00F4072
:00000001FF
