:040000005DEF00F0C0
:1000080005829EA60AEF00F00CEF00F05BEF00F00F
:10001800C698C6BC12EF00F014EF00F01BEF00F01A
:10002800C6AE19EF00F01BEF00F021EF00F0C9CFCA
:1000380001F0026AC69CC69EC688C7BA26EF00F0C1
:1000480028EF00F03EEF00F0C7B42DEF00F02FEFDF
:1000580000F03EEF00F0C9CF01F0026AC7A037EF09
:1000680000F039EF00F032EF00F0C9CF83FFC68807
:100078005AEF00F0C7BA43EF00F045EF00F05AEF2F
:1000880000F0C7B44AEF00F04CEF00F05AEF00F070
:10009800C9CF01F0026AC79081CFC9FFC688C7B02F
:1000A80058EF00F05AEF00F053EF00F09E960592DB
:0600B80011009FEF01F0B2
:1003000000009368000E956E000E836E000E046E62
:10031000200E036E90EC01F08CEF01F05DEF00F029
:10032000800EC76E03C0C8FF360EC66E010EC66EC5
:1003300094869488F28EF28C9E969D861200026AB4
:0C034000016A05900592000181EF01F0B8
:020000040030CA
:0E000000FFC90F3F3C9D85FF0FC00FE00F4072
:00000001FF
