:060000000A128A11FC2F18
:100F0E00F000700883120313930008008316031376
:100F1E00141C922F932F8D2F08000A128A118D27E1
:100F2E000A128A118312031313080800F3008316A2
:100F3E0003138712731DA42FA52FA92F72089400D7
:100F4E008715AD2F70087204940087117308710411
:100F5E008312031394000800FF30831603138600D8
:100F6E0088018713831203138717F001F101F20131
:100F7E0020300A128A119D270A128A118312031336
:100F8E0087130730F5007D30F400F40BCC2FF50BF2
:100F9E00CC2F8312031306080A128A1187270A120E
:100FAE008A110A128A1194270A128A1183120313C4
:100FBE0088000730F5007D30F400F40BE42FF50BBC
:100FCE00E42F8312031387130330F6008A30F500E3
:100FDE005530F400F40BF12FF50BF12FF60BF12F2A
:100FEE00F82FC52F0A128A11002883010A128A11BE
:020FFE00B32F0F
:02400E00FE3F73
:00000001FF
