:060000000A128A110C280F
:10000800FE00030EF2000A08F3000A128A111528EE
:100018000A128A110F28F601F70183010A128A11C0
:100028008E28831203138C1D1A281B286E2814127D
:10003800141B1F2820282428941F232824282E280E
:100048001308F000F1017008F6007108F7001413A6
:100058009413141683160313941A332834284D283E
:100068001419372838284D28831203131308F00071
:10007800F1017008F6007108F70083160313141CC9
:1000880046284728412883120313130888001416AA
:100098006C28941A502851286C28141D5428552867
:1000A8006C28831203131308F000F1017008F6009E
:1000B8007108F7008316031314108312031306083C
:1000C800930014168316031314186B286C286628DB
:1000D80083128C1173088A00720E8300FE0E7E0E46
:1000E8000900803083160313940074089300363097
:1000F80083120313940001308316031391008715AC
:1001080007168B170B17831203138C11831603130F
:100118008C150800FF308316031386008801013010
:100128008312031388002030F4000030F5000A120F
:100138008A1175200A128A11A0280A128A110C281D
:02400E00FE3F73
:00000001FF
