:060000000A128A110C280F
:10000800FE00030EF1000A08F2000A128A111328F2
:100018000A128A110F2883010A128A1131288312C1
:1000280003138C1D182819282A280A128A116420FB
:100038000A128A1183120313880006080A128A1109
:1000480074200A128A11831203138C1172088A0011
:10005800710E8300FE0E7E0E0900FF308316031317
:10006800860088018312031388018B170B178C11E4
:10007800831603138C159F018516F301F401F5010E
:1000880024300A128A114E200A128A114A280A12AA
:100098008A110C28F600831603138712761D55283B
:1000A80056285A287508940087155E287308750421
:1000B80094008711760874048312031394000800CF
:1000C8000A128A116D200A128A1183120313130867
:1000D800080083160313141C722873286D2808005F
:0C00E800F000700883120313930008005E
:02400E00FE3F73
:00000001FF
