:04000000BFEF03F05B
:1003000000000EC001F00FC002F010C003F011C0D9
:1003100004F00A0E056E000E066E000E076E000E4B
:10032000086E7BEC03F00150370FD96EDA6ADF50AC
:10033000126E1250336E346A356A366A0EC001F09E
:100340000FC002F010C003F011C004F00A0E056ED9
:10035000000E066E000E076E000E086E29EC03F00C
:1003600001C00EF002C00FF003C010F004C011F085
:100370000EC001F00FC002F010C003F011C004F075
:100380000A0E056E000E066E000E076E000E086E59
:100390007BEC03F00150370FD96EDA6ADF50126E32
:1003A00012502F6E306A316A326A0EC001F00FC0EF
:1003B00002F010C003F011C004F00A0E056E000E2A
:1003C000066E000E076E000E086E29EC03F001C0E9
:1003D0000EF002C00FF003C010F004C011F00EC008
:1003E00001F00FC002F010C003F011C004F00A0EBB
:1003F000056E000E066E000E076E000E086E7BEC9A
:1004000003F00150370FD96EDA6ADF50126E1250C6
:100410002B6E2C6A2D6A2E6A0EC001F00FC002F0FE
:1004200010C003F011C004F00A0E056E000E066E37
:10043000000E076E000E086E29EC03F001C00EF0EE
:1004400002C00FF003C010F004C011F00EC001F0A4
:100450000FC002F010C003F011C004F00A0E056EC8
:10046000000E066E000E076E000E086E7BEC03F0A9
:100470000150370FD96EDA6ADF50126E1250276EB4
:10048000286A296A2A6A010E1A6E27C012F028C04B
:1004900013F029C014F02AC015F012C015F0146A28
:1004A000136A126A1250131014101510D8A45BEFBF
:1004B00002F05DEF02F096EF02F02BC012F02CC0BC
:1004C00013F02DC014F02EC015F013C015F012C09B
:1004D00014F0136A126A1250131014101510D8A4D5
:1004E00074EF02F076EF02F096EF02F02FC013F0F7
:1004F00030C014F031C015F0126A0E501210166E92
:100500000F501310176E10501410186E1150151054
:10051000196E1650171018101910D8A492EF02F087
:1005200094EF02F096EF02F0000E1A6E1A50236E4E
:10053000246A256A266A1200000E1D6E000E1E6EC9
:10054000000E1F6E000E206E000E936E8186020E4E
:100550001C6E040E1B6EBA0EE82EFED71B2EFCD7A7
:100560001C2EFAD700F000F081961DC00EF01EC0C0
:100570000FF01FC010F020C011F081EC01F0000E50
:10058000226E000E216E26B6C8EF02F0CAEF02F00E
:10059000CDEF02F08192CEEF02F08182D890233627
:1005A0002436253626360D0E1B6EFC0EE82EFED7A1
:1005B0001B2EFCD781900D0E1B6EFC0EE82EFED775
:1005C0001B2EFCD78180214A222A22BEF1EF02F0A5
:1005D000225009E1200E215CD8A0F1EF02F0F3EFE8
:1005E00002F0C3EF02F081940D0E1B6EFC0EE82E9C
:1005F000FED71B2EFCD78184020E1C6E040E1B6ED0
:10060000BA0EE82EFED71B2EFCD71C2EFAD700F010
:1006100000F0E90E1D1809E1030E1E181F1020102E
:10062000D8A415EF03F017EF03F01FEF03F0000E4F
:100630001D6E000E1E6E000E1F6E000E206E010E4F
:100640001D26000E1E221F222022B5EF02F000EF11
:1006500000F0000E096E000E0A6E000E0B6E000E0A
:100660000C6E0550061007100810D8B43AEF03F0CE
:100670003CEF03F072EF03F0010E0D6E46EF03F056
:10068000D89005360636073608360D2A08AE4BEFE9
:1006900003F04DEF03F040EF03F0D89009360A362F
:1006A0000B360C360550015C0650025807500358B3
:1006B00008500458D8A05FEF03F061EF03F06AEF31
:1006C00003F00550015E0650025A0750035A0850C5
:1006D000045A0980D89008320732063205320D2EAE
:1006E0004DEF03F009C001F00AC002F00BC003F0A7
:1006F0000CC004F012000550061007100810D8B402
:1007000084EF03F086EF03F0B6EF03F0010E096EFD
:1007100090EF03F0D8900536063607360836092ADA
:1007200008AE95EF03F097EF03F08AEF03F0055062
:10073000015C065002580750035808500458D8A0CE
:10074000A4EF03F0A6EF03F0AEEF03F00550015E57
:100750000650025A0750035A0850045AD8900832DB
:10076000073206320532092E97EF03F001C001F07F
:1007700002C002F003C003F004C004F01200B00E87
:10078000F66E070EF76E000EF86E00EE37F010EE04
:100790000BF00900F5CFEEFFE550E150FAE100EE75
:1007A00023F0140EEE6AE806FDE100019CEF02F072
:0B07B0003F065B4F666D7D077F6FFF0B
:020000040030CA
:0E000000FFC90F3F3C9D85FF0FC00FE00F4072
:00000001FF
