:060000000A128A11FC2F18
:100D3C000A128A11BA260A128A1183160313111485
:100D4C0008000A128A11BA260A128A118316031392
:100D5C00111508000A128A11BA260A128A11700893
:100D6C008312031393000800831603131419BF2E68
:100D7C00C02EBA2E11081F39031DC52EC62EBA2E31
:100D8C0008000A128A11BA260A128A118316031352
:100D9C0091150A128A11BA260A128A1183120313A8
:100DAC001308F200F3017208F4007308F5000A123C
:100DBC008A11BA260A128A118316031311167508A2
:100DCC00F1007408F000080028308312031394001B
:100DDC00831603139101831203132008A400210826
:100DEC00A5002208A6002308A70002300310A40DBA
:100DFC00A50DA60DA70DFF3E031DFC2E2708F30025
:100E0C002608F2002508F1002408F0000130F70054
:100E1C003130F6002D30F5000030F4000A128A1142
:100E2C0022270A128A117008FF3E831603139300BF
:100E3C0094018715071608000030FC000030FB00F9
:100E4C000030FA000030F900730872047104700469
:100E5C000319312F322F7F2FFD01FD0A422F013054
:100E6C00F8000310F00DF10DF20DF30DF80B372F08
:100E7C000130FF007F08FD07F31F452F462F352F4C
:100E8C000130F8000310F90DFA0DFB0DFC0DF80BF9
:100E9C00482F73087702031D5D2F72087602031D1D
:100EAC005D2F71087502031D5D2F70087402031C01
:100EBC00602F612F702F7008F4027108031C710FE2
:100ECC00F5027208031C720FF6027308031C730FF1
:100EDC00F702791401300310F30CF20CF10CF00C46
:100EEC00FF3E031D712F0130FD02031D7E2F7F2F4E
:100EFC00462F7C08F3007B08F2007A08F100790891
:100F0C00F0000800FF3083160313860088010130BF
:100F1C008312031388000030A3000130A200863036
:100F2C00A100A030A0000A128A11EA260A128A1126
:100F3C000A128A119E260A128A112030F000003003
:100F4C00F1000A128A11B0260A128A1183120313B5
:100F5C000608A800A9012808F0002908F1000A12C7
:100F6C008A11B0260A128A110A128A11A7260A12AD
:100F7C008A11033083120313AA008A30A90055305A
:100F8C00A800A80BC72FA90BC72FAA0BC72F0A1293
:100F9C008A119E260A128A112130F0000030F100CD
:100FAC000A128A11B0260A128A110A128A11C7264D
:100FBC000A128A1170088312031388000A128A110C
:100FCC00A7260A128A111A3083120313AA005E3064
:100FDC00A9006D30A800A80BF12FA90BF12FAA0BBB
:100FEC00F12FF82F9E2F0A128A11002883010A1262
:040FFC008A11882F9F
:02400E00FE3F73
:00000001FF
